S0180000485750315F61737369676E6D656E74732E73726563E1
S113000071C000008EC000008CC000008AC00000D7
S113001088C0000086C0000084C0000082C00000C8
S113002080C000007EC000007CC000007AC00000D8
S113003078C0000076C0000074C0000072C00000E8
S113004070C000002EC100006CC000006AC0000037
S113005068C0000066C0000064C0000062C0000008
S113006060C000005EC000005CC000005AC0000018
S113007058C0000007C1000054C0000052C0000076
S113008050C000004EC000004CC000004AC0000038
S113009048C0000046C0000044C0000042C0000048
S11300A040C000003EC000003CC000003AC0000058
S11300B038C0000036C0000034C0000032C0000068
S11300C030C000002EC000002CC000002AC0000078
S11300D028C0000026C0000024C0000022C0000088
S11300E020C0000011241FBECFEFD1E2DEBFCDBF80
S11300F000E00CBF12E0A0E0B2E0E4E1FCE000E0CC
S11301000BBF02C007900D92AA35B107D9F722E0C0
S1130110AAE5B2E001C01D92A136B207E1F702D010
S113012077C56ECFCF93DF9300D000D0CDB7DEB7C5
S113013078943AD0CFD019821A821B821C8200E0B4
S113014010E0CE01019689D069817A818B819C81EE
S113015056D17E836D838D819E810817190789F39B
S11301608D819E8142971CF480E0B8D01AC08D81A5
S11301709E814A97A4F42D813E8122513109C901FF
S1130180880F991F880F991F880F991F821B930B43
S113019067E070E056D281E0860FA0D002C088E00C
S11301A09DD00D811E81CDCF10925A0283B3816000
S11301B083BB84B3816084BBECE7F0E080E480839C
S11301C0808187608083EBE7F0E0808188608083B2
S11301D0EAE7F0E087E8808380818860808310927A
S11301E080008DE08093810088E09DE390938900F6
S11301F080938800EFE6F0E0808182608083089538
S1130200CF93DF9300D01F92CDB7DEB7BC0180E05F
S113021090E026D120E030E040EA50E4AFD120E085
S113022030E040E85AE3AAD169837A838B839C83C4
S113023069817A818B819C8120E030E040E05FE33A
S113024079D020E030E048EC52E498D10F900F9040
S11302500F900F90DF91CF910895CF93DF9320916A
S11302605A02222361F0EC01809178009091790088
S1130270C7DF688379838A839B8310925A02DF9154
S1130280CF9108951F920F920FB60F9211248F935E
S113029081E080935A028F910F900FBE0F901F90B0
S11302A018951F920F920FB60F9211240BB60F924E
S11302B08F93EF93FF93EAE7F0E08081806480837B
S11302C0FF91EF918F910F900BBE0F900FBE0F9087
S11302D01F9018958FEF81B982B90895893048F03D
S11302E087E392E09F938F93D3D10F900F908FEF7A
S11302F00895811104C08FEF82B982E0089581507E
S11303009FEF92B940E050E00EC092B121E030E09E
S1130310042E02C0220F331F0A94E2F720952923EA
S113032022B94F5F5F4F282F30E0241735076CF751
S113033082E008955058BB27AA270ED0E5C0D6D036
S113034030F0DBD020F031F49F3F11F41EF4CBC029
S11303500EF4E095E7FBC1C0E92FE7D080F3BA17AC
S1130360620773078407950718F071F49EF5FFC0C0
S11303700EF4E0950B2EBA2FA02D0B01B9019001BC
S11303800C01CA01A0011124FF27591B99F0593F00
S113039050F4503E68F11A16F040A22F232F342F48
S11303A04427585FF3CF469537952795A795F04096
S11303B05395C9F77EF41F16BA0B620B730B840BAB
S11303C0BAF09150A1F0FF0FBB1F661F771F881F63
S11303D0C2F70EC0BA0F621F731F841F48F48795BB
S11303E077956795B795F7959E3F08F0B3CF9395AA
S11303F0880F08F09927EE0F97958795089504D0F4
S11304006894B111B5C0089598D088F09F5790F0C2
S1130410B92F9927B751A0F0D1F0660F771F881F25
S1130420991F1AF0BA95C9F712C0B13081F09FD064
S1130430B1E008959CC0672F782F8827B85F39F002
S1130440B93FCCF3869577956795B395D9F73EF484
S113045090958095709561957F4F8F4F9F4F08952C
S1130460E89409C097FB3EF490958095709561954A
S11304707F4F8F4F9F4F9923A9F0F92F96E9BB2700
S11304809395F695879577956795B795F111F8CF7C
S1130490FAF4BB0F11F460FF1BC06F5F7F4F8F4FE7
S11304A09F4F16C0882311F096E911C0772321F0DD
S11304B09EE8872F762F05C0662371F096E8862F75
S11304C070E060E02AF09A95660F771F881FDAF7CC
S11304D0880F9695879597F9089597F99F6780E80F
S11304E070E060E008959FEF80EC089500240A9482
S11304F01616170618060906089500240A941216FB
S11305001306140605060895092E0394000C11F42D
S1130510882352F0BB0F40F4BF2B11F460FF04C0DA
S11305206F5F7F4F8F4F9F4F089557FD9058440F33
S1130530551F59F05F3F71F04795880F97FB991F3E
S113054061F09F3F79F087950895121613061406FB
S1130550551FF2CF4695F1DF08C016161706180688
S1130560991FF1CF86957105610508940895E89463
S1130570BB2766277727CB0197F908950BD0C4CF03
S1130580B5DF28F0BADF18F0952309F0A6CFABCF7A
S11305901124EECFCADFA0F3959FD1F3950F50E05D
S11305A0551F629FF001729FBB27F00DB11D639F21
S11305B0AA27F00DB11DAA1F649F6627B00DA11DC7
S11305C0661F829F2227B00DA11D621F739FB00D6D
S11305D0A11D621F839FA00D611D221F749F3327DD
S11305E0A00D611D231F849F600D211D822F762F76
S11305F06A2F11249F5750408AF0E1F088234AF073
S1130600EE0FFF1FBB1F661F771F881F91505040BE
S1130610A9F79E3F510570F060CFAACF5F3FECF37E
S1130620983EDCF3869577956795B795F795E795AA
S11306309F5FC1F7FE2B880F911D9695879597F9BB
S1130640089597FB072E16F4009406D077FD08D082
S11306500BD007FC05D03EF4909581959F4F0895EB
S1130660709561957F4F0895AA1BBB1B51E107C08C
S1130670AA1FBB1FA617B70710F0A61BB70B881F2E
S1130680991F5A95A9F780959095BC01CD010895BD
S1130690CF93DF93CDB7DEB7AE014A5F5F4FFA0168
S11306A061917191AF0180915D0290915E0203D0DE
S11306B0DF91CF9108952F923F924F925F926F9264
S11306C07F928F929F92AF92BF92CF92DF92EF92DE
S11306D0FF920F931F93CF93DF93CDB7DEB72B9782
S11306E00FB6F894DEBF0FBECDBF6C017B018A014B
S11306F0FC0117821682838181FFBFC1CE0101965E
S11307003C01F6019381F70193FD859193FF81915B
S11307107F01882309F4ADC1853239F493FD8591B5
S113072093FF81917F01853221F4B60190E0D6D107
S1130730E8CF912C212C312CFFE1F315D8F08B322A
S113074079F038F4803279F08332A1F4232D2061DA
S11307501DC08D3261F0803369F4232D216016C0F1
S1130760832D8260382EE32DE4603E2E2AC0F32DC3
S1130770F8601DC037FC2DC020ED280F2A3040F052
S11307808E32B9F436FC75C1232D2064322E19C083
S113079036FE06C08AE0989E200D1124922E11C0C8
S11307A0EAE02E9E200D1124222EF32DF0623F2E1E
S11307B008C08C3621F4832D8068382E02C0883618
S11307C041F4F70193FD859193FF81917F0181119C
S11307D0B3CF982F9F7D9554933028F40C5F1F4F0F
S11307E09FE399830DC0833631F0833771F08335ED
S11307F009F055C020C0F801808189830E5F1F4F26
S113080088248394912C530112C02801F2E04F0EE6
S1130810511CF801A080B18036FE03C0692D70E040
S113082002C06FEF7FEFC5014ED14C018201F32D61
S1130830FF773F2E15C0280122E0420E511CF8011B
S1130840A080B18036FE03C0692D70E002C06FEF56
S11308507FEFC5012DD14C01F32DF0683F2E8201AD
S113086033FC19C0822D90E088169906A0F4B601D5
S113087080E290E033D12A94F5CFF50137FC8591DD
S113088037FE81915F01B60190E028D121102A94AE
S113089021E0821A91088114910479F7E1C0843629
S11308A011F0893639F5F80137FE07C0608171818E
S11308B0828193810C5F1F4F08C060817181072E74
S11308C0000C880B990B0E5F1F4FF32DFF763F2E04
S11308D097FF09C090958095709561957F4F8F4FD4
S11308E09F4FF0683F2E2AE030E0A30133D1882ED9
S11308F0861844C0853731F4232D2F7EB22E2AE08A
S113090030E025C0932D997FB92E8F36C1F018F4AD
S1130910883579F0AEC0803719F0883721F0A9C046
S1130920E92FE061BE2EB4FE0DC0FB2DF460BF2E96
S113093009C034FE0AC0292F2660B22E06C028E062
S113094030E005C020E130E002C020E132E0F801EF
S1130950B7FE07C060817181828193810C5F1F4F54
S113096006C06081718180E090E00E5F1F4FA3019B
S1130970F1D0882E8618FB2DFF773F2E36FE0DC052
S1130980232D2E7FA22E891458F434FE0BC032FC82
S113099009C0832D8E7EA82E05C0B82CA32C03C0BD
S11309A0B82C01C0B92CA4FE0FC0FE01E80DF11D46
S11309B08081803321F49A2D997EA92E09C0A2FE4C
S11309C006C0B394B39404C08A2D867809F0B39416
S11309D0A3FC10C0A0FE06C0B21480F4280C922C14
S11309E09B180DC0B21458F4B60180E290E076D0A2
S11309F0B394F8CFB21418F42B1802C0982C212CFD
S1130A00A4FE0FC0B60180E390E068D0A2FE16C039
S1130A10A1FC03C088E790E002C088E590E0B6013D
S1130A200CC08A2D867851F0A1FE02C08BE201C071
S1130A3080E2A7FC8DE2B60190E050D0891430F436
S1130A40B60180E390E04AD09A94F8CF8A94F301F7
S1130A50E80DF11D8081B60190E040D08110F6CF01
S1130A60222009F44ECEB60180E290E037D02A94D9
S1130A70F7CFF6018681978102C08FEF9FEF2B9607
S1130A800FB6F894DEBF0FBECDBFDF91CF911F919B
S1130A900F91FF90EF90DF90CF90BF90AF909F9019
S1130AA08F907F906F905F904F903F902F9008951C
S1130AB0FC010590615070400110D8F78095909525
S1130AC08E0F9F1F0895FC0161507040019001102A
S1130AD0D8F7809590958E0F9F1F08950F931F93BD
S1130AE0CF93DF93FB01238121FD03C08FEF9FEFA1
S1130AF02CC022FF16C046815781248135814217BC
S1130B00530744F4A081B1819D012F5F3F4F31838E
S1130B1020838C93268137812F5F3F4F3783268331
S1130B2014C08B01EC01FB010084F185E02D1995C3
S1130B30892BE1F6D80116968D919C911797019611
S1130B4017969C938E931697CE01DF91CF911F91A8
S1130B500F910895FA01AA27283051F1203181F12B
S1130B60E8946F936E7F6E5F7F4F8F4F9F4FAF4FB1
S1130B70B1E03ED0B4E03CD0670F781F891F9A1FC4
S1130B80A11D680F791F8A1F911DA11D6A0F711D78
S1130B90811D911DA11D20D009F468943F912AE084
S1130BA0269F11243019305D3193DEF6CF0108956C
S1130BB0462F4770405D4193B3E00FD0C9F7F6CF9D
S1130BC0462F4F70405D4A3318F0495D31FD405265
S1130BD0419302D0A9F7EACFB4E0A69597958795FB
S1130BE077956795BA95C9F70097610571050895DA
S1130BF09B01AC010A2E0694579547953795279586
S1130C00BA95C9F7620F731F841F951FA01D08951D
S1070C10F894FFCF82
S1130C14496E636F7272656374204C4544206E752B
S1130C246D62657220656E74657265642E00496E2A
S1130C34636F727265637420737461746520656E86
S1130C4474657265642E00496E636F7272656374B1
S1130C54206C69676874626172206C6576656C20C7
S10D0C64656E74657265642E00006D
S9030000FC
