:1000000071C000008FC000008DC000008BC00000D8
:1000100089C0000087C0000085C0000083C00000C8
:1000200081C000007FC000007DC000007BC00000D8
:1000300079C0000077C0000075C0000073C00000E8
:1000400071C0000062C400006DC000006BC0000001
:1000500069C0000067C0000065C0000063C0000008
:1000600061C000005FC000005DC000005BC0000018
:1000700059C000003BC4000055C0000053C0000040
:10008000A4C100004FC000004DC000004BC00000E4
:1000900049C0000047C0000045C0000043C0000048
:1000A00041C000003FC000003DC000003BC0000058
:1000B00039C0000037C0000035C0000033C0000068
:1000C00031C000002FC000002DC000002BC0000078
:1000D00029C0000027C0000025C0000023C0000088
:1000E00021C0000011241FBECFEFD1E2DEBFCDBF83
:1000F00000E00CBF12E0A0E0B2E0E6E5F2E100E0D3
:100100000BBF02C007900D92A83EB107D9F722E0BD
:10011000A8EEB2E001C01D92A43FB207E1F705D0FE
:100120000C9429096DCFD2C10895CF93DF9300D0ED
:100130001F921F92CDB7DEB7CFD0FED181D0FED3B4
:1001400067D319821A821B821C8210E0E12CF12CE9
:10015000C12CD12CB2D0082FCE010196B2D3698127
:100160007A818B819C8189D44B015C01E616F7066C
:1001700020F461E087E03AD306C06C157D0518F4E1
:1001800061E086E033D3113081F018F0123041F194
:100190004DC0C4019BD161E083E013D3013009F469
:1001A0003AC0023009F042C038C0C6018FD161E0C8
:1001B00081E007D3B9D28A3071F443E950E0B60147
:1001C000CE010596B4D22D81222319F0C601ABDFF2
:1001D00002C0C82ED92E033011F1023039F521C0EA
:1001E000C70174D161E082E0ECD29ED28A3071F412
:1001F00043E950E0B701CE01059699D22D81222323
:1002000019F0C70190DF02C0E82EF92E033059F033
:10021000013061F40AC011E009C012E007C010E02B
:1002200005C012E003C010E001C011E02FEF80E72D
:1002300092E0215080409040E1F700C000008ACF5A
:1002400087B1807C87B98AB1837F8AB988B18F638F
:1002500088B98BB18C608BB908958150883048F093
:1002600089E492E09F938F9334D50F900F908FEF96
:100270000895863070F421E030E0A90102C0440FF7
:10028000551F8A95E2F7CA0196B1892391F080E063
:10029000089590E0049721E030E0A90102C0440FE6
:1002A000551F8A95E2F7CA0199B1892321F080E0B0
:1002B000089581E0089581E00895CF93C1E005C0DD
:1002C0008C2FCBDF813029F0CF5FC930C8F380E0BD
:1002D00001C08C2FCF91089584B1876084B980B319
:1002E0008F6080BB81B38F6081BBE1E9F0E08081EA
:1002F0008860808380EB94E09093990080939800CD
:10030000A1E7B0E08C9182608C93808183608083D0
:10031000089585B18D7F85B985E08A95F1F7000054
:1003200085B1826085B985E08A95F1F7000085B1D5
:100330008D7F85B90895882321F085B1846085B9C2
:1003400003C085B18B7F85B9E4CF089585B18E7FD9
:1003500085B985E08A95F1F7000085B1816085B99E
:1003600085E08A95F1F7000085B18E7F85B9089503
:100370001F93CF93DF93182FC0E0D0E00BC0812FE5
:1003800090E00C2E02C0959587950A94E2F7817053
:10039000D2DF2196C830D10594F3D8DFDF91CF9119
:1003A0001F91089591B39F6091BB21B343E050E04A
:1003B000481B510981E090E002C0880F991F4A95BF
:1003C000E2F78095822381BB08951F920F920FB6AA
:1003D0000F9211240BB60F922F933F934F935F937D
:1003E0006F937F938F939F93AF93BF93EF93FF93FD
:1003F00081B38F6081BBE091EC02F0E0E851FD4FEA
:100400008081B6DF8091EC02CDDF8091EC0290E03C
:10041000019683709078992324F401978C6F9F6FD5
:1004200001968093EC02FF91EF91BF91AF919F9164
:100430008F917F916F915F914F913F912F910F908D
:100440000BBE0F900FBE0F901F9018950F931F9328
:10045000CF93DF93EC018B0140E050E02FC09E0171
:10046000ADECBCEC27D49695879596958795969597
:1004700087959C01220F331F880F991F880F991FA2
:10048000880F991F820F931F9E01281B390BC901EA
:10049000D801A40FB51F9927FC01EC57FD4F8081AF
:1004A0008C939E01ADECBCEC05D4EC01D695C795C0
:1004B000D695C795D695C7954F5F5F4F4430510588
:1004C00074F2DF91CF911F910F910895CF93DF9335
:1004D00000D01F92CDB7DEB7803127E2920748F0F7
:1004E0008AE692E09F938F93F4D30F900F908FEF53
:1004F0001CC019821A821B821C82BE016F5F7F4F53
:10050000A5DF80E090E00CC0E1E0F0E0EC0FFD1F23
:10051000E80FF91F2081FC01E851FD4F208301966F
:10052000843091058CF3789480E00F900F900F90B9
:100530000F90DF91CF91089520E027C0822F90E0A7
:10054000FC01EE0FFF1FEE0FFF1FEE0FFF1FE81B5A
:10055000F90BE45EFD4FA081B1813C9181E090E018
:10056000AC01068002C0440F551F0A94E2F7432BEA
:100570004C93A481B5813C91068002C0880F991FDD
:100580000A94E2F7832B8C932F5F2430B8F220E09B
:1005900029C0822F90E0FC01EE0FFF1FEE0FFF1F1E
:1005A000EE0FFF1FE81BF90BE050FE4FA081B18159
:1005B0004C9181E090E0BC01068002C0660F771F7D
:1005C0000A94E2F7362F309534233C93A481B58109
:1005D0003C91068002C0880F991F0A94E2F7832B92
:1005E0008C932F5F2430A8F2089580E06FC0482FCD
:1005F00050E0FA01EE0FFF1FEE0FFF1FEE0FFF1F7F
:10060000E41BF50BE45EFD4FA481B5819C9121E0D4
:1006100030E0068002C0220F331F0A94E2F72095D3
:1006200029232C9390E037C0292F30E0F901EE0FF9
:10063000FF1FEE0FFF1FEE0FFF1FE21BF30BE0503B
:10064000FE4FA281B3812C9130E0068002C0359527
:1006500027950A94E2F720FD1DC0FA01EE0FFF1F57
:10066000EE0FFF1FEE0FFF1FE41BF50BE45EFD4FC7
:10067000A481B5814C9121E030E0068002C0220FB8
:10068000331F0A94E2F7242B2C93880F880F890FCD
:100690008F5F08959F5F943038F2FA01EE0FFF1FCD
:1006A000EE0FFF1FEE0FFF1FE41BF50BE45EFD4F87
:1006B000A481B5819C9121E030E0068002C0220F28
:1006C000331F0A94E2F7292B2C938F5F843008F4B0
:1006D0008ECF80E00895CF93DF93CDB7DEB76197DB
:1006E0000FB6F894DEBF0FBECDBF91E1E8E3F2E0B4
:1006F000DE01119601900D929A95E1F79FEF980F08
:10070000903140F4E1E0F0E0EC0FFD1FE80FF11D47
:10071000808101C08FEF61960FB6F894DEBF0FBEE7
:10072000CDBFDF91CF91089560DFD5CF0895CF92EF
:10073000DF92EF92FF920F931F93CF93DF937C0191
:10074000C62ED72E8A01FC011082C0E0D0E04DDF1A
:100750008823E9F3C0DF8F3FD1F38E3039F18F303A
:1007600031F481E0F70180838C2D9D2D21C08A30EA
:1007700068F49E01220F331FCC0FDD1FCC0FDD1F4D
:10078000CC0FDD1FC20FD31FC80FD11D01151105DE
:1007900019F0CE01F8011995FFEF23EC89E0F15033
:1007A00020408040E1F700C00000D1CF8C2F9D2F6A
:1007B000DF91CF911F910F91FF90EF90DF90CF903D
:1007C0000895CF93C82F662369F060E081E0BAD026
:1007D00060E082E0B7D060E083E0B4D061E08C2FCD
:1007E000B1D002C060E0AED0CF910895CF93C82FB2
:1007F000662351F060E086E0A5D060E087E0A2D0FB
:1008000061E08C2F9FD002C060E09CD0CF91089512
:100810001092ED0283B3816083BB84B3816084BB9B
:10082000ECE7F0E080E48083808187608083EBE701
:10083000F0E0808188608083EAE7F0E087E88083E9
:10084000808188608083109280008DE08093810099
:1008500088E09DE39093890080938800EFE6F0E0C4
:100860008081826080830895CF93DF9300D01F92B0
:10087000CDB7DEB7BC0180E090E02BD120E030E0C6
:1008800040EA50E4B4D120E030E040E85AE3AFD190
:1008900069837A838B839C8369817A818B819C8134
:1008A00020E030E040E05FE383D020E030E048EC3F
:1008B00052E49DD10F900F900F900F90DF91CF9148
:1008C0000895CF93DF932091ED02222361F0EC0194
:1008D0008091780090917900C7DF688379838A835B
:1008E0009B831092ED02DF91CF9108951F920F929A
:1008F0000FB60F9211248F9381E08093ED028F91B8
:100900000F900FBE0F901F9018951F920F920FB669
:100910000F9211240BB60F928F93EF93FF93EAE798
:10092000F0E0808180648083FF91EF918F910F9040
:100930000BBE0F900FBE0F901F9018958FEF81B9CF
:1009400082B908958150883048F08EE892E09F93F4
:100950008F93BFD10F900F908FEF0895623048F0C2
:100960008CEA92E09F938F93B4D10F900F908FEF0A
:10097000089561110EC042B121E030E0B90102C01A
:10098000660F771F8A95E2F7CB01842B82B982E04C
:10099000089542B121E030E0B90102C0660F771F2F
:1009A0008A95E2F7CB018095842382B982E008958D
:1009B0005058BB27AA270ED0E0C0D1D030F0D6D0F7
:1009C00020F031F49F3F11F41EF4C6C00EF4E09500
:1009D000E7FBBCC0E92FE2D080F3BA1762077307C8
:1009E0008407950718F071F49EF5FAC00EF4E095AF
:1009F0000B2EBA2FA02D0B01B90190010C01CA01D9
:100A0000A0011124FF27591B99F0593F50F4503E83
:100A100068F11A16F040A22F232F342F4427585F75
:100A2000F3CF469537952795A795F0405395C9F78D
:100A30007EF41F16BA0B620B730B840BBAF0915045
:100A4000A1F0FF0FBB1F661F771F881FC2F70EC0E4
:100A5000BA0F621F731F841F48F4879577956795B7
:100A6000B795F7959E3F08F0B3CF9395880F08F0A0
:100A70009927EE0F97958795089598D088F09F57FE
:100A800090F0B92F9927B751A0F0D1F0660F771FDA
:100A9000881F991F1AF0BA95C9F712C0B13081F0BA
:100AA0009FD0B1E008959CC0672F782F8827B85F4A
:100AB00039F0B93FCCF3869577956795B395D9F71B
:100AC0003EF490958095709561957F4F8F4F9F4F25
:100AD0000895E89409C097FB3EF490958095709531
:100AE00061957F4F8F4F9F4F9923A9F0F92F96E97A
:100AF000BB279395F695879577956795B795F111EF
:100B0000F8CFFAF4BB0F11F460FF1BC06F5F7F4F8B
:100B10008F4F9F4F16C0882311F096E911C077239D
:100B200021F09EE8872F762F05C0662371F096E8A6
:100B3000862F70E060E02AF09A95660F771F881F75
:100B4000DAF7880F9695879597F9089597F99F6733
:100B500080E870E060E008959FEF80EC0895002445
:100B60000A941616170618060906089500240A9412
:100B700012161306140605060895092E0394000C98
:100B800011F4882352F0BB0F40F4BF2B11F460FF27
:100B900004C06F5F7F4F8F4F9F4F089557FD905850
:100BA000440F551F59F05F3F71F04795880F97FB31
:100BB000991F61F09F3F79F08795089512161306EB
:100BC0001406551FF2CF4695F1DF08C0161617061A
:100BD0001806991FF1CF869571056105089408954F
:100BE000E894BB2766277727CB0197F908950BD0A8
:100BF000C4CFB5DF28F0BADF18F0952309F0A6CFEF
:100C0000ABCF1124EECFCADFA0F3959FD1F3950FA0
:100C100050E0551F629FF001729FBB27F00DB11D80
:100C2000639FAA27F00DB11DAA1F649F6627B00D10
:100C3000A11D661F829F2227B00DA11D621F739FF9
:100C4000B00DA11D621F839FA00D611D221F749F07
:100C50003327A00D611D231F849F600D211D822F4E
:100C6000762F6A2F11249F5750408AF0E1F0882395
:100C70004AF0EE0FFF1FBB1F661F771F881F9150A2
:100C80005040A9F79E3F510570F060CFAACF5F3F5B
:100C9000ECF3983EDCF3869577956795B795F795D5
:100CA000E7959F5FC1F7FE2B880F911D969587955D
:100CB00097F90895A29FB001B39FC001A39F700D43
:100CC000811D1124911DB29F700D811D1124911D54
:100CD0000895CF93DF93CDB7DEB7AE014A5F5F4F84
:100CE000FA0161917191AF018091F0029091F1024E
:100CF00003D0DF91CF9108952F923F924F925F9250
:100D00006F927F928F929F92AF92BF92CF92DF921B
:100D1000EF92FF920F931F93CF93DF93CDB7DEB780
:100D20002B970FB6F894DEBF0FBECDBF6C017B01D1
:100D30008A01FC0117821682838181FFBFC1CE0127
:100D400001963C01F6019381F70193FD859193FF94
:100D500081917F01882309F4ADC1853239F493FD77
:100D6000859193FF81917F01853221F4B60190E056
:100D7000D6D1E8CF912C212C312CFFE1F315D8F0FE
:100D80008B3279F038F4803279F08332A1F4232D5C
:100D900020611DC08D3261F0803369F4232D216004
:100DA00016C0832D8260382EE32DE4603E2E2AC0CB
:100DB000F32DF8601DC037FC2DC020ED280F2A3020
:100DC00040F08E32B9F436FC75C1232D2064322EEA
:100DD00019C036FE06C08AE0989E200D1124922E7E
:100DE00011C0EAE02E9E200D1124222EF32DF06278
:100DF0003F2E08C08C3621F4832D8068382E02C027
:100E0000883641F4F70193FD859193FF81917F012D
:100E10008111B3CF982F9F7D9554933028F40C5FA8
:100E20001F4F9FE399830DC0833631F0833771F0F4
:100E3000833509F055C020C0F801808189830E5F99
:100E40001F4F88248394912C530112C02801F2E093
:100E50004F0E511CF801A080B18036FE03C0692DF1
:100E600070E002C06FEF7FEFC5014ED14C018201EF
:100E7000F32DFF773F2E15C0280122E0420E511CB2
:100E8000F801A080B18036FE03C0692D70E002C079
:100E90006FEF7FEFC5012DD14C01F32DF0683F2E90
:100EA000820133FC19C0822D90E088169906A0F4C7
:100EB000B60180E290E033D12A94F5CFF50137FCFA
:100EC000859137FE81915F01B60190E028D1211014
:100ED0002A9421E0821A91088114910479F7E1C0E3
:100EE000843611F0893639F5F80137FE07C0608184
:100EF0007181828193810C5F1F4F08C06081718175
:100F0000072E000C880B990B0E5F1F4FF32DFF76F9
:100F10003F2E97FF09C090958095709561957F4F02
:100F20008F4F9F4FF0683F2E2AE030E0A30133D16E
:100F3000882E861844C0853731F4232D2F7EB22E9B
:100F40002AE030E025C0932D997FB92E8F36C1F06D
:100F500018F4883579F0AEC0803719F0883721F061
:100F6000A9C0E92FE061BE2EB4FE0DC0FB2DF460D8
:100F7000BF2E09C034FE0AC0292F2660B22E06C03B
:100F800028E030E005C020E130E002C020E132E09E
:100F9000F801B7FE07C060817181828193810C5F87
:100FA0001F4F06C06081718180E090E00E5F1F4F8F
:100FB000A301F1D0882E8618FB2DFF773F2E36FE39
:100FC0000DC0232D2E7FA22E891458F434FE0BC0A1
:100FD00032FC09C0832D8E7EA82E05C0B82CA32C10
:100FE00003C0B82C01C0B92CA4FE0FC0FE01E80D4F
:100FF000F11D8081803321F49A2D997EA92E09C09C
:10100000A2FE06C0B394B39404C08A2D867809F07A
:10101000B394A3FC10C0A0FE06C0B21480F4280C48
:10102000922C9B180DC0B21458F4B60180E290E0E7
:1010300076D0B394F8CFB21418F42B1802C0982CC1
:10104000212CA4FE0FC0B60180E390E068D0A2FE80
:1010500016C0A1FC03C088E790E002C088E590E0DC
:10106000B6010CC08A2D867851F0A1FE02C08BE239
:1010700001C080E2A7FC8DE2B60190E050D0891457
:1010800030F4B60180E390E04AD09A94F8CF8A9485
:10109000F301E80DF11D8081B60190E040D0811090
:1010A000F6CF222009F44ECEB60180E290E037D090
:1010B0002A94F7CFF6018681978102C08FEF9FEFC8
:1010C0002B960FB6F894DEBF0FBECDBFDF91CF9148
:1010D0001F910F91FF90EF90DF90CF90BF90AF9056
:1010E0009F908F907F906F905F904F903F902F9048
:1010F0000895FC010590615070400110D8F780956B
:1011000090958E0F9F1F0895FC01615070400190D3
:101110000110D8F7809590958E0F9F1F08950F931B
:101120001F93CF93DF93FB01238121FD03C08FEF3A
:101130009FEF2CC022FF16C0468157812481358144
:101140004217530744F4A081B1819D012F5F3F4FA7
:10115000318320838C93268137812F5F3F4F3783E4
:10116000268314C08B01EC01FB010084F185E02D86
:101170001995892BE1F6D80116968D919C911797B8
:10118000019617969C938E931697CE01DF91CF917F
:101190001F910F910895FA01AA27283051F12031AB
:1011A00081F1E8946F936E7F6E5F7F4F8F4F9F4FFB
:1011B000AF4FB1E03ED0B4E03CD0670F781F891F3D
:1011C0009A1FA11D680F791F8A1F911DA11D6A0F0B
:1011D000711D811D911DA11D20D009F468943F91BE
:1011E0002AE0269F11243019305D3193DEF6CF01BD
:1011F0000895462F4770405D4193B3E00FD0C9F783
:10120000F6CF462F4F70405D4A3318F0495D31FDEF
:101210004052419302D0A9F7EACFB4E0A695979542
:10122000879577956795BA95C9F700976105710518
:1012300008959B01AC010A2E069457954795379562
:101240002795BA95C9F7620F731F841F951FA01DBC
:061250000895F894FFCFA1
:101256002D002C002E0005010100010201030101F1
:1012660000010201050A0109010B01012400230006
:10127600250007240023002500052400230025005F
:10128600042D002C002E0003FF0102030A040506AC
:101296000B0708090C0F000E0D496E636F7272651D
:1012A600637420627574746F6E206E756D626572FC
:1012B60020656E74657265642E004E756D6265728A
:1012C60020746F6F206C6172676520746F2073687D
:1012D6006F772E00039F250D9949411F0109496E1D
:1012E600636F7272656374204C4544206E756D623F
:1012F600657220656E74657265642E00496E636F53
:10130600727265637420737461746520656E7465AA
:101316007265642E00496E636F7272656374206C29
:1013260069676874626172206C6576656C20656EAB
:0813360074657265642E00006D
:00000001FF
